:020000040800F2
:1000000038100020B9030008250400082504000862
:10001000250400082504000825040008000000004D
:10002000000000000000000000000000250400089F
:10003000250400080000000025040008250400082D
:1000400025040008250400082504000825040008EC
:1000500025040008250400082504000825040008DC
:1000600025040008250400082504000825040008CC
:1000700025040008250400082504000825040008BC
:1000800025040008250400082504000825040008AC
:10009000250400082504000825040008950A000826
:1000A000250400082504000825040008250400088C
:1000B000250400082504000825040008250400087C
:1000C000250400082504000825040008250400086C
:1000D00025040008CD08000825040008FD060008D6
:1000E0006D0B00082504000825040008000000002E
:1000F0000000000000000000000000000000000000
:1001000000000000000000005FF808F180B487B034
:1001100000AF786041F25253FB604FF000037B6107
:100120000FE04FF000033B6103E03B6903F1010383
:100130003B613A69FB689A42F7D37B6903F101039B
:100140007B617A697B689A42EBD307F11C07BD4655
:1001500080BC704780B500AF4FF48053C4F20203F7
:100160004FF48052C4F20202126842F001021A6097
:100170004FF48052C4F202024FF48053C4F20203DF
:100180005B6819464FF00003CFF6FF030B40536046
:100190004FF48053C4F202034FF48052C4F20202BF
:1001A000126822F0847222F480321A604FF4805375
:1001B000C4F202034FF48052C4F20202126822F425
:1001C00080221A604FF48053C4F202034FF480522D
:1001D000C4F20202526822F4FE025A604FF48053C5
:1001E000C4F202034FF41F029A6000F009F84FF4C2
:1001F0006D43CEF200034FF000629A6080BD00BFF5
:1002000080B500AF00F002F880BD00BF80B483B0BD
:1002100000AF4FF000037B604FF000033B604FF4F2
:100220008053C4F202034FF48052C4F202021268F7
:1002300042F480321A604FF48053C4F202031B6808
:1002400003F400333B607B6803F101037B603B6890
:10025000002B03D17B68B3F5A06FECD14FF4805332
:10026000C4F202031B6803F40033002B03D04FF0E9
:1002700001033B6002E04FF000033B603B68012B51
:1002800040F094804FF40053C4F202034FF4005244
:10029000C4F20202126842F010021A604FF40053D6
:1002A000C4F202034FF40052C4F20202126822F0B8
:1002B00003021A604FF40053C4F202034FF40052D9
:1002C000C4F20202126842F002021A604FF4805334
:1002D000C4F202034FF48052C4F2020252685A6020
:1002E0004FF48053C4F202034FF48052C4F202026E
:1002F00052685A604FF48053C4F202034FF48052A4
:10030000C4F20202526842F480625A604FF4805391
:10031000C4F202034FF48052C4F20202526822F483
:100320007C125A604FF48053C4F202034FF480529F
:10033000C4F20202526842F4E8125A604FF4805349
:10034000C4F202034FF48052C4F20202126842F077
:1003500080721A6000BF4FF48053C4F202031B681E
:1003600003F00073002BF6D04FF48053C4F2020365
:100370004FF48052C4F20202526822F003025A6023
:100380004FF48053C4F202034FF48052C4F20202CD
:10039000526842F002025A6000BF4FF48053C4F228
:1003A00002035B6803F00C03082BF6D107F10C077E
:1003B000BD4680BC704700BF80B582B000AF48F238
:1003C0005063C0F600037B6040F20003C2F20003FA
:1003D0003B600BE07B681A683B681A603B6803F17E
:1003E00004033B607B6803F104037B603A6840F6DA
:1003F0000413C2F200039A42ECD3084808494FF0B4
:1004000000028842B8BF40F8042BFADBFFF7A2FED7
:1004100000F052FC07F10807BD4680BD040900202A
:10042000380C002080B400AFFEE700BF80B489B074
:1004300000AF786039604FF00003FB614FF00003BC
:100440003B614FF00003BB614FF00003FB604FF0D6
:1004500000037B614FF00003BB603B68DB7803F077
:100460000F03FB613B68DB7803F01003002B04D023
:100470003B689B78FA691343FB613B681B88DBB2DE
:10048000002B4ED07B681B687B614FF00003BB6183
:1004900041E0BB694FF0010202FA03F3FB603B68E5
:1004A0001B881A46FB6813403B613A69FB689A4215
:1004B0002DD1BB694FEA8303FB60FB684FF00F024D
:1004C00002FA03F3BB60BB686FEA03037A69134067
:1004D0007B61FB68FA6902FA03F37A6913437B6173
:1004E0003B68DB78282B07D1BB694FF0010202FA89
:1004F00003F27B685A610AE03B68DB78482B06D13F
:10050000BB694FF0010202FA03F27B681A61BB6912
:1005100003F10103BB61BB69072BBAD97B687A6918
:100520001A603B681B88FF2B53D97B685B687B6133
:100530004FF00003BB6146E0BB6903F108034FF0D5
:10054000010202FA03F3FB603B681B881A46FB6852
:1005500013403B613A69FB689A4230D1BB694FEA6C
:100560008303FB60FB684FF00F0202FA03F3BB60EA
:10057000BB686FEA03037A6913407B61FB68FA6921
:1005800002FA03F37A6913437B613B68DB78282B1B
:1005900008D1BB6903F108034FF0010202FA03F22C
:1005A0007B685A613B68DB78482B08D1BB6903F153
:1005B00008034FF0010202FA03F27B681A61BB697B
:1005C00003F10103BB61BB69072BB5D97B687A696D
:1005D0005A6007F12407BD4680BC704780B485B0DF
:1005E00000AF78600B467B804FF00003FB737B68A5
:1005F0009B681A467B881340002B03D04FF0010301
:10060000FB7302E04FF00003FB73FB7B184607F11E
:100610001407BD4680BC704780B588B000AF7860D5
:100620004FF008004FF0010102F0E4F84FF4802091
:100630004FF0010102F00AF94FF48063BB834FF0E1
:100640001803FB774FF00303BB7707F11C034FF44C
:100650004060C4F201001946FFF7E8FE4FF4006362
:10066000BB834FF00403FB7707F11C034FF440609A
:10067000C4F201001946FFF7D9FE7B68FB604FF01A
:1006800000033B824FF000037B824FF00003BB82EC
:100690004FF000033B834FF00C03FB8207F10C0388
:1006A0004FF49040C4F20000194602F0DBF94FF419
:1006B0009040C4F200004FF0010102F0A9FA4FF49B
:1006C0009040C4F2000040F225514FF0010202F0C8
:1006D000BFFA4FF027033B724FF000037B724FF0DD
:1006E0000203BB724FF00103FB7207F108031846C7
:1006F00002F0E6FB07F12007BD4680BD80B582B061
:1007000000AF4FF49040C4F2000040F2255102F0D7
:1007100025FB0346002B43D04FF49043C4F2000363
:100720009B889BB2FB71FB790A2B20D040F6051306
:10073000C2F200031B78952B19D840F60513C2F2BC
:1007400000031B781A4640F69423C2F20003F9799D
:10075000995440F60513C2F200031B7803F101031C
:10076000DAB240F60513C2F200031A7010E040F648
:100770006010C2F2000040F69421C2F2000104F0C1
:100780009BFD40F60513C2F200034FF000021A7001
:100790004FF49040C4F2000040F2255102F040FBBB
:1007A00007F10807BD4680BD80B582B000AF786014
:1007B00018E07B681B787A6802F101027A604FF4D6
:1007C0009040C4F20000194602F094FA00BF4FF4C2
:1007D0009040C4F200004FF0400102F09FFA03463F
:1007E000002BF4D07B681B78002BE2D107F10807BF
:1007F000BD4680BD80B588B000AF78604FF0040082
:100800004FF0010101F0F6FF4FF00403BB834FF0FE
:100810001803FB774FF00303BB7707F11C034FF47A
:100820004060C4F201001946FFF700FE4FF00803D4
:10083000BB834FF00403FB7707F11C034FF44060C8
:10084000C4F201001946FFF7F1FD7B68FB604FF031
:1008500000033B824FF000037B824FF00003BB821A
:100860004FF000033B834FF00C03FB8207F10C03B6
:100870004FF46050C4F20100194602F0F3F84FF44F
:100880006050C4F201004FF0010102F0C1F94FF4D1
:100890006050C4F2010040F225514FF0010202F015
:1008A000D7F94FF025033B724FF000037B724FF0F6
:1008B0000303BB724FF00103FB7207F108031846F4
:1008C00002F0FEFA07F12007BD4680BD80B582B078
:1008D00000AF4FF46050C4F2010040F2255102F025
:1008E0003DFA0346002B43D04FF46053C4F201039A
:1008F0009B889BB2FB71FB790A2B20D040F6041336
:10090000C2F200031B78312B19D840F60413C2F24F
:1009100000031B781A4640F65023C2F20003F9790F
:10092000995440F60413C2F200031B7803F101034B
:10093000DAB240F60413C2F200031A7010E040F677
:10094000FC10C2F2000040F65021C2F2000104F097
:10095000B3FC40F60413C2F200034FF000021A7019
:100960004FF46050C4F2010040F2255102F058FAF1
:1009700007F10807BD4680BD80B582B000AF786042
:1009800018E07B681B787A6802F101027A604FF404
:100990006050C4F20100194602F0ACF900BF4FF4F8
:1009A0006050C4F201004FF0400102F0B7F9034675
:1009B000002BF4D07B681B78002BE2D107F10807ED
:1009C000BD4680BD80B584B000AF4FF008004FF049
:1009D000010101F00FFF4FF44053BB814FF00403BE
:1009E000FB734FF00303BB7307F10C034FF440603C
:1009F000C4F201001946FFF719FD4FF008004FF04F
:100A0000010101F0F7FE4FF44043BB814FF00403B6
:100A1000FB734FF00303BB7307F10C034FF440600B
:100A2000C4F201001946FFF701FD4FF4C0437B609B
:100A30004FF000033B724FF00C037B724FF0010349
:100A4000BB7207F10403184601F02CFF4FF0280396
:100A50003B704FF000037B704FF00103BB704FF011
:100A60000103FB703B46184602F02AFA4FF01703C9
:100A70003B704FF000037B704FF00003BB704FF0F2
:100A80000103FB703B46184602F01AFA07F1100703
:100A9000BD4680BD80B500AF4FF4804001F0A4FF9B
:100AA0000346002B61D04FF44063C4F201039B68FE
:100AB00003F40043002B2AD040F64C23C2F200037B
:100AC0001A6840F68823C2F200031B6810461946D4
:100AD00004F0F0F803461A4640F64C23C2F2000335
:100AE0001A6040F64413C2F200031A6840F6581325
:100AF000C2F200031B681046194604F0DBF80346F7
:100B00001A4640F64413C2F200031A6029E040F688
:100B10004C23C2F200031A6840F68823C2F2000395
:100B20001B681046194604F0C7F803461A4640F6FB
:100B30004C23C2F200031A6040F64413C2F20003D1
:100B40001A6840F65813C2F200031B681046194693
:100B500004F0B2F803461A4640F64413C2F200030A
:100B60001A604FF4007001F06DFF80BD80B500AFDA
:100B70004FF4005001F038FF0346002B61D04FF4D2
:100B80004063C4F201039B6803F48053002B2AD016
:100B900040F64C23C2F200031A6840F62C33C2F22E
:100BA00000031B681046194604F084F803461A46F1
:100BB00040F64C23C2F200031A6040F64413C2F21E
:100BC00000031A6840F63423C2F200031B68104683
:100BD000194604F071F803461A4640F64413C2F26F
:100BE00000031A6029E040F64C23C2F200031A68A1
:100BF00040F62C33C2F200031B681046194604F07D
:100C00005BF803461A4640F64C23C2F200031A6012
:100C100040F64413C2F200031A6840F63423C2F2CD
:100C200000031B681046194604F044F803461A46B0
:100C300040F64413C2F200031A604FF4805001F0F2
:100C400001FF80BD80B582B000AF4FF004004FF0CF
:100C5000010101F0CFFD4FF008004FF0010101F05C
:100C6000C9FD4FF41E43BB804FF00403FB714FF0EE
:100C70000303BB7107F104034FF40060C4F20100E9
:100C80001946FFF7D3FB4FF47E73BB804FF004038C
:100C9000FB714FF00303BB7107F104034FF4406095
:100CA000C4F201001946FFF7C1FB07F10807BD4672
:100CB00080BD00BF000000002DE9F043A7B006AFE3
:100CC0004FF41650FFF7A8FC4FF4E130FFF792FD08
:100CD000FFF778FEFFF7B6FF4FF42F70FFF716FA15
:100CE00048F2AC10C0F60000FFF746FE40F6601078
:100CF000C2F2000048F2B011C0F6000105F094FA0B
:100D000003467B634FF0000048F2B011C0F60001CB
:100D100005F08AFA0346BB634FF0000048F2B011B9
:100D2000C0F6000105F080FA0346FB634FF00000B7
:100D300048F2B011C0F6000105F076FA03463B64B4
:100D40004FF0000048F2B011C0F6000105F06CFA57
:100D500003467B644FF0000048F2B011C0F600017A
:100D600005F062FA0346BB6440F6FC10C2F20000D4
:100D700048F2B011C0F6000105F056FA0346FB65D3
:100D80004FF0000048F2B011C0F6000105F04CFA37
:100D900003463B664FF0000048F2B011C0F6000178
:100DA00005F042FA03467B664FF0000048F2B011AE
:100DB000C0F6000105F038FA0346BB66BB6B184667
:100DC00004F072FA0346012B43D17B6B184604F002
:100DD0006BFA024640F68C23C2F200031A60FB6BEA
:100DE000184604F05DFA02460B461046194603F019
:100DF0000DFF024640F64013C2F200031A603B6C3E
:100E0000184604F04DFA02460B461046194603F008
:100E1000FDFE024640F63023C2F200031A607B6CEE
:100E2000184604F03DFA02460B461046194603F0F8
:100E3000EDFE024640F64813C2F200031A60BB6C96
:100E4000184604F031FA024640F65013C2F200038D
:100E50001A603B6E184604F027FA0346012B35D181
:100E6000FB6D184604F020FA024640F64023C2F219
:100E700000031A607B6E184604F012FA02460B4615
:100E8000104619464FF000024FF0804303F5B203BD
:100E900003F024FD02460B461046194603F0B6FE49
:100EA000024640F63823C2F200031A60BB6E1846B1
:100EB00004F0F6F902460B461046194603F0A6FE6A
:100EC000024640F64823C2F200031A6040F6382377
:100ED000C2F200031A6840F68423C2F200031B68C2
:100EE0004FF001010C461046194604F09FF90346E5
:100EF000002B02D14FF000031C46E3B2002B15D0AB
:100F000040F63823C2F200031A6840F68423C2F286
:100F100000031B681046194603F0CCFE03461A4630
:100F200040F65413C2F200031A6019E040F6382369
:100F3000C2F200031A6840F68423C2F200031B6861
:100F40001046194603F0B6FE03461846604903F002
:100F5000B3FE03461A4640F65413C2F200031A6069
:100F600040F65413C2F200031A6840F20003C2F2C2
:100F700000031B681046194603F09EFE03461A46FE
:100F800040F65C13C2F200031A6040F65C13C2F232
:100F900000031B684FF00102144618464C4904F048
:100FA0004FF90346002B02D14FF000031C46E3B279
:100FB000002B2AD040F20003C2F200031B6818463F
:100FC00003F00EFB04460D4640F65413C2F2000334
:100FD0001B68184603F004FB02460B463AA1D1E910
:100FE000000103F09DF902460B462046294603F016
:100FF00097F902460B461046194603F007FE0246D3
:1010000040F65C13C2F200031A6040F65C13C2F2B1
:1010100000031B684FF00102144618462D4904F0E6
:10102000F1F80346002B02D14FF000031C46E3B257
:10103000002B19D040F65413C2F200031A6840F294
:101040000003C2F200031B681046194603F034FE89
:1010500003461F48194603F02DFE03461A4640F684
:101060005C13C2F200031A6040F64823C2F2000388
:101070001A6840F69023C2F200031B684FF001018A
:101080000C461046194604F0D1F80346002B02D155
:101090004FF000031C46E3B2002B1DD040F648235E
:1010A000C2F200031A6840F69023C2F200031B68E4
:1010B0001046194603F0FEFD03461A4640F630334B
:1010C000C2F200031A6021E00000000000807640B8
:1010D0000000B4430000000040F64823C2F20003C1
:1010E0001A6840F69023C2F200031B6810461946A6
:1010F00003F0E0FD03461846D54903F0DDFD034645
:101100001A4640F63033C2F200031A6040F630331C
:10111000C2F200031A6840F20003C2F200031B6827
:101120001046194603F0C8FD03461A4640F6F81368
:10113000C2F200031A6040F6F813C2F200031B6803
:101140004FF0010214461846C14904F079F80346ED
:10115000002B02D14FF000031C46E3B2002B2AD033
:1011600040F20003C2F200031B68184603F038FA8D
:1011700004460D4640F63033C2F200031B681846A1
:1011800003F02EFA02460B46ABA1D1E9000103F0B1
:10119000C7F802460B462046294603F0C1F802462E
:1011A0000B461046194603F031FD024640F6F8138F
:1011B000C2F200031A6040F6F813C2F200031B6883
:1011C0004FF0010214461846A24904F01BF80346EA
:1011D000002B02D14FF000031C46E3B2002B19D0C4
:1011E00040F65413C2F200031A6840F20003C2F240
:1011F00000031B681046194603F05EFD0346944841
:10120000194603F057FD03461A4640F6F813C2F29A
:1012100000031A6040F65C13C2F200031B68184614
:101220008D4903F047FD0346FB674FF001031C4661
:10123000F86F884903F0E6FF0346002B02D14FF018
:1012400000031C46E3B2002B05D0F86F804903F081
:1012500033FD0346FB67F86F03F0C2F902460B4605
:101260001046194676A3D3E9002303F00DFA02468F
:101270000B461046194674A3D3E9002303F02EFB56
:1012800002460B461046194601F0CAFE02460B46BE
:101290001046194603F0BAFC03467B67F86F03F06B
:1012A0009FF902460B461046194665A3D3E9002371
:1012B00003F0EAF902460B461046194662A3D3E949
:1012C000002303F00BFB02460B461046194601F0C3
:1012D0006BFE02460B461046194603F097FC034688
:1012E0003B6740F65813C2F200037A6F1A6040F66B
:1012F0002C33C2F200037A6F1A6040F63423C2F234
:1013000000033A6F1A6040F68823C2F200033A6F76
:101310001A6048F2A813C0F600031A6840F6441396
:10132000C2F200031B681046194603F0CDFD0346C8
:10133000184603F055F902460B46104619464FF081
:1013400000024FF0804303F5F20303F0C7FA0246B0
:101350000B461046194603F031FC0346002BB8BF7C
:101360005B42184603F05CFD024640F63C23C2F2A5
:1013700000031A6048F2A813C0F600031A6840F68A
:101380004C23C2F200031B681046194603F09CFD73
:101390000346184603F024F902460B461046194648
:1013A0004FF000024FF0804303F5F20303F096FA8A
:1013B00002460B461046194603F000FC0346002B7C
:1013C000B8BF5B42184603F02BFD024640F64423AB
:1013D000C2F200031A6040F64C23C2F200031B68FD
:1013E0004FF00102144618461A4903F00BFF03465A
:1013F000002B02D14FF000031C46E3B2002B2DD08E
:1014000040F64413C2F200031B684FF00102144679
:101410001846104903F0F6FE0346002B02D14FF0A8
:1014200000031C46E3B2002B18D04FF01603BB6735
:1014300014E000BFAFF300800000000000807640A1
:10144000F1D4C853FB210940000000000080664031
:101450000000B443000000000000344240F64C237A
:10146000C2F200031B684FF0010214461846DFF871
:10147000F81703F0C7FE0346002B02D14FF000031C
:101480001C46E3B2002B18D040F64413C2F200030E
:101490001B684FF0010214461846DFF8CC1703F022
:1014A000C5FE0346002B02D14FF000031C46E3B2F9
:1014B000002B02D04FF01503BB6740F64C23C2F25D
:1014C00000031B684FF0010214461846DFF8981716
:1014D00003F0ACFE0346002B02D14FF000031C4684
:1014E000E3B2002B18D040F64413C2F200031B688D
:1014F0004FF0010214461846DFF86C1703F082FE25
:101500000346002B02D14FF000031C46E3B2002B30
:1015100002D04FF00C03BB6740F64C23C2F200032D
:101520001B684FF0010214461846DFF83C1703F021
:101530007DFE0346002B02D14FF000031C46E3B2B0
:10154000002B18D040F64413C2F200031B684FF082
:10155000010214461846DFF8101703F067FE034631
:10156000002B02D14FF000031C46E3B2002B02D047
:101570004FF00B03BB674FF44060C4F201004FF023
:101580004001FFF72BF80346002B07D140F64C1320
:10159000C2F200034FF00B021A60D7E04FF4006074
:1015A000C4F201004FF40061FFF718F80346002B66
:1015B00007D140F64C13C2F200034FF016021A6036
:1015C000C4E04FF40060C4F201004FF48051FFF713
:1015D00005F80346002B07D140F64C13C2F2000376
:1015E0004FF021021A60B1E04FF44060C4F20100F4
:1015F0004FF08001FEF7F2FF0346002B07D140F6C3
:101600004C13C2F200034FF02C021A609EE04FF41C
:101610000060C4F201004FF48061FEF7DFFF034673
:10162000002B07D140F64C13C2F200034FF03702F3
:101630001A608BE04FF40060C4F201004FF40041E7
:10164000FEF7CCFF0346002B07D140F64C13C2F245
:1016500000034FF042021A6078E04FF44060C4F299
:1016600001004FF00801FEF7B9FF0346002B07D138
:1016700040F64C13C2F200034FF04D021A6065E0D1
:101680004FF40060C4F201004FF40071FEF7A6FFB2
:101690000346002B07D140F64C13C2F200034FF073
:1016A00058021A6052E04FF44060C4F201004FF05B
:1016B0000801FEF793FF0346002B07D140F64C13B9
:1016C000C2F200034FF063021A603FE04FF4406043
:1016D000C4F201004FF02001FEF780FF0346002B0B
:1016E00007D140F64C13C2F200034FF022021A60F9
:1016F0002CE04FF44060C4F201004FF01001FEF7FF
:101700006DFF0346002B07D140F64C13C2F20003D5
:101710004FF038021A6019E04FF44060C4F2010043
:101720004FF40071FEF75AFF0346002B07D140F635
:101730004C13C2F200034FF00C021A6006E040F6B0
:101740004C13C2F200034FF000021A6040F68C23E3
:10175000C2F200031B68002B06D148F2B410C0F699
:101760000000FFF709F9E8E340F68C23C2F200031A
:101770001B68012B06D148F2AC10C0F60000FFF741
:10178000FBF8DAE340F68C23C2F200031B68162B49
:1017900006D148F2B810C0F60000FFF7EDF8CCE330
:1017A00040F68C23C2F200031B68212B06D148F2BD
:1017B000BC10C0F60000FFF7DFF8BEE340F68C2354
:1017C000C2F200031B68022B11D140F64413C2F28F
:1017D0000003DFF894241A6040F64413C2F20003B9
:1017E0001A6840F64C23C2F200031A60A5E340F6E3
:1017F0008C23C2F200031B68032B48D140F2000384
:10180000C2F20003DFF864241A6040F63823C2F203
:1018100000031A6840F68423C2F200031A6040F6FF
:101820004823C2F200031A6840F69023C2F2000374
:101830001A6048F2A813C0F600031B68DFF83004F2
:10184000194603F0F5FB03461846DFF8281403F0A9
:101850003BFB03461A4640F64C23C2F200031A60D3
:1018600048F2A813C0F600031B68DFF80C04194601
:1018700003F0DEFB03461846FE4903F025FB034652
:101880001A4640F64413C2F200031A6055E340F6CC
:101890008C23C2F200031B68042B1AD140F2000310
:1018A000C2F20003F14A1A6040F63823C2F2000384
:1018B0001A6840F68423C2F200031A6040F64823F7
:1018C000C2F200031A6840F69023C2F200031A60C5
:1018D00033E340F68C23C2F200031B68052B40F073
:1018E000A18040F64013C2F200031B68184602F0C4
:1018F00077FE02460B46104619464FF000024FF0A5
:10190000804303F5F20302F00BFD02460B4614463A
:101910001D4648F2A813C0F600031B68184602F0E3
:101920005FFE02460B462046294602F0D7FF0246DC
:101930000B46104619464FF000024FF0804303F566
:10194000F20302F0A1FE02460B461046194603F0D0
:101950005DF9024640F64413C2F200031A6040F6F5
:101960003023C2F200031B68184602F039FE02461B
:101970000B46104619464FF000024FF07E5303F518
:10198000D00302F081FE02460B4610461946AEA374
:10199000D3E9002302F0C6FC02460B461046194666
:1019A00003F034F9024640F20003C2F200031A6069
:1019B00040F20003C2F200031B684FF0010214461C
:1019C0001846A94903F01EFC0346002B02D14FF034
:1019D00000031C46E3B2002B0FD040F20003C2F21A
:1019E00000031B681846A54903F066F903461A462A
:1019F00040F20003C2F200031A6040F63823C2F23C
:101A000000031A6840F68423C2F200031A6040F60D
:101A10004823C2F200031A6840F69023C2F2000382
:101A20001A608AE240F68C23C2F200031B68062B80
:101A300039D140F64013C2F200031B68184602F089
:101A4000CFFD02460B4682A1D1E9000102F068FCFD
:101A500002460B4614461D4648F2A813C0F6000382
:101A60001B68184602F0BCFD02460B46204629467C
:101A700002F034FF02460B46104619464FF00002B2
:101A80004FF0804303F5F20302F0FEFD02460B46E1
:101A90001046194603F0BAF8024640F64C23C2F24B
:101AA00000031A6049E240F68C23C2F200031B686F
:101AB000072B40F0858040F64013C2F200031B68FC
:101AC000184602F08DFD02460B461046194662A3E9
:101AD000D3E9002302F026FC02460B4614461D46BD
:101AE00048F2A813C0F600031B68184602F078FD00
:101AF00002460B462046294602F0F0FE02460B46FF
:101B0000104619464FF000024FF0804303F5F203F0
:101B100002F0BAFD02460B461046194603F076F86D
:101B2000024640F64413C2F200031A6040F6302326
:101B3000C2F200031B684C48194603F0BBF8034689
:101B40001A4640F20003C2F200031A6040F200039A
:101B5000C2F200031B684FF00102144618464249C6
:101B600003F050FB0346002B02D14FF000031C464C
:101B7000E3B2002B0FD040F20003C2F200031B6857
:101B800018463E4903F098F803461A4640F200030F
:101B9000C2F200031A6040F63823C2F200031A684A
:101BA00040F68423C2F200031A6040F64823C2F2D2
:101BB00000031A6840F69023C2F200031A60BCE1E9
:101BC00040F68C23C2F200031B68082B58D140F664
:101BD0004013C2F200031B68184602F001FD0246E2
:101BE0000B46104619461EA3D3E9002302F098FBCA
:101BF00002460B4614461D4648F2A813C0F60003E1
:101C00001B68184602F0ECFC02460B4620462946AB
:101C100002F064FE02460B46104619464FF00002E1
:101C20004FF0804303F5F20302F02EFD02460B460F
:101C30001046194602F0EAFF024640F64C23C2F273
:101C400000031A6079E100BF0000000000805640E8
:101C50000000000000406F400000000000E0754000
:101C60000000000000E07040000000000000B442EE
:101C700000005CC30000C84300801DC40000B443E2
:101C800040F68C23C2F200031B68582B4ED148F259
:101C9000A813C0F600031B68184602F0A1FC024618
:101CA0000B4661A1D1E9000102F018FE02460B4685
:101CB000104619464FF000024FF0804303F5F2033F
:101CC00002F0E2FC02460B461046194602F09EFF67
:101CD000024640F64C23C2F200031A6048F2A813F1
:101CE000C0F600031B68184602F07AFC02460B4659
:101CF0004FA1D1E9000102F0F1FD02460B4610466A
:101D000019464FF000024FF0804303F5F20302F052
:101D1000BBFC02460B461046194602F077FF02460E
:101D200040F64413C2F200031A6006E140F68C2329
:101D3000C2F200031B68092B40F0828040F640137A
:101D4000C2F200031B68184602F04AFC02460B462A
:101D500039A1D1E9000102F0E3FA02460B4614462C
:101D60001D4648F2A813C0F600031B68184602F08F
:101D700037FC02460B462046294602F0AFFD0246DC
:101D80000B46104619464FF000024FF0804303F512
:101D9000F20302F079FC02460B461046194602F0A7
:101DA00035FF024640F64C23C2F200031A6040F6AB
:101DB0004813C2F200031B68184602F011FC0246E9
:101DC0000B464FF000004FF0804101F5D20102F0C8
:101DD000A7FA02460B4614461D4648F2A813C0F661
:101DE00000031B68184602F0FBFB02460B46204628
:101DF000294602F073FD02460B46104619464FF085
:101E000000024FF0804303F5F20302F03DFC02466E
:101E10000B461046194602F0F9FE024640F64413FE
:101E2000C2F200031A6088E00000000000E070C009
:101E30000000000000F079400000000000E0704069
:101E400040F68C23C2F200031B68632B75D140F669
:101E50004013C2F200031B68184602F0C1FB0246A1
:101E60000B461046194658A3D3E9002302F058FA4E
:101E700002460B4614461D4648F2A813C0F600035E
:101E80001B68184602F0ACFB02460B46204629466A
:101E900002F024FD02460B46104619464FF00002A0
:101EA0004FF0804303F5F20302F0EEFB02460B46CF
:101EB0001046194602F0AAFE024640F64C23C2F232
:101EC00000031A6040F64813C2F200031B6818466C
:101ED00002F086FB02460B46104619463CA3D3E9A6
:101EE000002302F01FFA02460B4614461D4648F234
:101EF000A813C0F600031B68184602F071FB0246E7
:101F00000B462046294602F0E9FC02460B461046E5
:101F100019464FF000024FF0804303F5F20302F040
:101F2000B3FB02460B461046194602F06FFE02460E
:101F300040F64413C2F200031A6040F64C13C2F29A
:101F400000031D6840F64023C2F200031C6840F6FF
:101F50005C13C2F200031B68184603F07BF981464C
:101F600040F6F813C2F200031B68184603F072F93A
:101F7000804640F64423C2F200031B68184603F073
:101F800069F9064640F63C23C2F200031B68184676
:101F900003F060F902463B46CDF80090CDF804808E
:101FA000B96F029103960492184648F2C011C0F628
:101FB00000012A46234600F01BFB3B461846FEF76D
:101FC000F3FBFEF793BE00BF0000000000E070408E
:101FD0000000000000F0794080B483B000AF78606A
:101FE0000B46FB707B68FA781A704FF001031846B5
:101FF00007F10C07BD4680BC704700BF80B485B0B8
:1020000000AF786039604FF00003FB600FE03B6881
:102010001A787B681A707B6803F101037B603B6868
:1020200003F101033B60FB6803F10103FB603B68C4
:102030001B78002BEBD1FB68184607F11407BD464F
:1020400080BC704780B586B000AFF8607A603B60B6
:102050000B46FB724FF000037B617B6803F1FF339B
:102060007B603B68092B26D93A684CF6CD43CCF609
:10207000CC43A3FB02134FEAD303FA7AF868114664
:102080007A68FFF7DFFF03467B617B69FA68D31844
:10209000FB6013E0FB7AF8681946FFF79DFFFB68C9
:1020A00003F10103FB607B6903F101037B617B6842
:1020B00003F1FF337B607B68002BEBDC39684CF667
:1020C000CD43CCF6CC43A3FB01234FEAD302134606
:1020D0004FEA83039B184FEA4303CA1AD3B203F1B2
:1020E0003003DBB2F8681946FFF776FF03467A69DA
:1020F000D3187B617B69184607F11807BD4680BD80
:1021000080B586B000AFF8607A603B600B46FB722A
:102110004FF000037B613B68002B04DA3B68C3F19E
:1021200000033B6101E03B683B617B6803F1FF33E7
:102130007B603B69092B2CD93B68002B13DA3A6989
:102140004CF6CD43CCF6CC43A3FB02134FEAD303AA
:10215000C3F10003FA7AF86811467A68FFF7D0FFF6
:1021600003467B6110E03A694CF6CD43CCF6CC4394
:10217000A3FB02134FEAD303FA7AF86811467A6890
:10218000FFF7BEFF03467B617B69FA68D318FB60EB
:102190002BE03B68002B15DA7B6803F1FF337B6093
:1021A00010E0FB7AF8681946FFF716FFFB6803F1A9
:1021B0000103FB607B6903F101037B617B6803F131
:1021C000FF337B607B68002BEBDC3B68002B0CDA79
:1021D000F8684FF02D01FFF7FFFE03467A69D31828
:1021E0007B61FB6803F10103FB6039694CF6CD4369
:1021F000CCF6CC43A3FB01234FEAD30213464FEAAC
:1022000083039B184FEA4303CA1AD3B203F1300386
:10221000DBB2F8681946FFF7DFFE03467A69D31888
:102220007B617B69184607F11807BD4680BD00BF7A
:1022300080B588B002AFF8607A600A46FA72BB7265
:102240004FF000037B617B6803F1FF337B603B6AE7
:102250004FEA1313002B24D03B6A4FEA1311FA7A8A
:10226000BB7A0091F86811467A68FFF7E1FF0346F0
:102270007A69D3187B617B69FA68D318FB6013E035
:10228000FB7AF8681946FFF7A7FEFB6803F1010324
:10229000FB607B6903F101037B617B6803F1FF3322
:1022A0007B607B68002BEBDC3B6A03F00F03092BA0
:1022B0000CD83B6ADBB203F00F03DBB203F130034F
:1022C000DBB2F8681946FFF787FE1BE0BB7A002BEC
:1022D0000CD03B6ADBB203F00F03DBB203F1370330
:1022E000DBB2F8681946FFF777FE0BE03B6ADBB21A
:1022F00003F00F03DBB203F15703DBB2F8681946B2
:10230000FFF76AFE7B6903F101037B617B69184675
:1023100007F11807BD4680BD80B58AB002AFF860EE
:10232000B9607A603B604FF00003BB614FF000037F
:102330007B61FB68002B00F02281FB684FF00002FC
:102340001A701CE17B681B78252B10D07B681A78EB
:10235000FB681A70FB6803F10103FB607B6803F103
:1023600001037B607B6903F101037B6108E17B680A
:1023700003F101031B78252B10D1FB684FF02502D8
:102380001A70FB6803F10103FB607B6803F1020331
:102390007B607B6903F101037B61F1E04FF0200377
:1023A000FB774FF00003BB777B6803F101037B6091
:1023B0007B681B78302B1BD14FF03003FB777B6899
:1023C00003F101037B6013E0BB7F1A464FEA8202F0
:1023D000D3184FEA4303DAB27B681B78D318DBB219
:1023E000A3F13003BB777B6803F101037B6000E05E
:1023F00000BF7B681B782F2B03D97B681B78392B98
:10240000E2D9BA7F7B69D3181A46BB689A4205D9CC
:10241000BB68DAB27B69DBB2D31ABB777B681B7807
:10242000A3F15803202B00F29A8001A252F823F066
:102430000B2500085F2500085F2500085F250008C0
:102440005F2500085F2500085F2500085F2500085C
:102450005F2500085F2500085F2500084525000866
:10246000B52400085F2500085F2500085F250008E7
:102470005F250008B52400085F2500085F250008D7
:102480005F2500085F2500085F2500085F2500081C
:102490005F2500085F2500085F2500082D2500083E
:1024A0005F250008CF2400085F2500085F2500088D
:1024B000E9240008BA7F3B6803F1040139601B6816
:1024C000F97FF868FFF71CFE0346BB614AE0BA7F5C
:1024D0003B6803F1040139601B68F97FF868FFF776
:1024E000B1FD0346BB613DE0BA7F3B6803F10401E7
:1024F00039601968FB7F0091F86819464FF00003B6
:10250000FFF796FE0346BB612CE0BA7F3B6803F100
:10251000040139601968FB7F0091F86819464FF093
:102520000103FFF785FE0346BB611BE03B6803F137
:1025300004023A601B68F8681946FFF75FFD03461E
:10254000BB610FE03B6803F104023A601B68DBB239
:10255000F8681946FFF740FD0346BB6102E04FF003
:10256000FF332CE07B6803F101037B60BB69FA68F1
:10257000D318FB607A69BB69D3187B6100E000BFA8
:102580007B681B78002B04D07A69BB689A42FFF401
:10259000D9AE7A69BB689A4204D2FB684FF0000258
:1025A0001A700BE0FB6803F1FF33FB60FB684FF030
:1025B00000021A707B6903F1FF337B617B69184667
:1025C00007F12007BD4680BD80B584B000AFF8603C
:1025D000B9607A60F8684FF06401BA687B68FFF709
:1025E0009BFE0346184607F11007BD4680BD00BF9D
:1025F0000EB480B585B000AF786007F12003BB60F2
:102600007868F969BA68FFF7DFFF0346FB60FB688B
:10261000184607F11407BD46BDE8804003B0704777
:1026200080B487B000AF78604FF000037B614FF05B
:1026300000033B614FF00003FB604FF00003BB6001
:102640004FF48053C4F202035B6803F00C037B6118
:102650007B69042B0AD0082B0FD0002B4DD17A6850
:102660004FF49053C0F27A0313604DE07A684FF450
:102670009053C0F27A03136046E04FF48053C4F2E3
:1026800002035B6803F470133B614FF48053C4F2A0
:1026900002035B6803F48033FB603B694FEA9343BA
:1026A00003F102033B61FB68002B09D13A694FF447
:1026B0001063C0F23D0303FB02F27B681A6023E063
:1026C0004FF48053C4F202035B6803F40033002B21
:1026D00009D03A694FF41063C0F23D0303FB02F2E4
:1026E0007B681A6010E03A694FF49053C0F27A03A5
:1026F00003FB02F27B681A6006E07A684FF490539D
:10270000C0F27A03136000BF4FF48053C4F2020397
:102710005B6803F0F0037B617B694FEA13137B6115
:1027200040F23843C2F200037A699B181B78DBB28F
:10273000BB607B681A68BB6822FA03F27B685A6048
:102740004FF48053C4F202035B6803F4E0637B61DF
:102750007B694FEA13237B6140F23843C2F20003E6
:102760007A699B181B78DBB2BB607B685A68BB68D0
:1027700022FA03F27B689A604FF48053C4F202039A
:102780005B6803F460537B617B694FEAD3237B6111
:1027900040F23843C2F200037A699B181B78DBB21F
:1027A000BB607B685A68BB6822FA03F27B68DA6018
:1027B0004FF48053C4F202035B6803F440437B612F
:1027C0007B694FEA93337B6140F24843C2F20003D6
:1027D0007A699B181B78DBB2BB607B68DA68BB68E0
:1027E000B2FBF3F27B681A6107F11C07BD4680BC9F
:1027F000704700BF80B483B000AF78600B46FB70B9
:10280000FB78002B0DD04FF48053C4F202034FF439
:102810008052C4F20202926911467A680A439A61B0
:102820000EE04FF48053C4F202034FF48052C4F21E
:102830000202926911467A686FEA02020A409A61BE
:1028400007F10C07BD4680BC704700BF80B483B061
:1028500000AF78600B46FB70FB78002B0DD04FF477
:102860008053C4F202034FF48052C4F20202D269D0
:1028700011467A680A43DA610EE04FF48053C4F2DD
:1028800002034FF48052C4F20202D26911467A6800
:102890006FEA02020A40DA6107F10C07BD4680BC0C
:1028A000704700BF80B485B000AF78604FF0000380
:1028B000FB604FF48063C4F20103FB607B689B798B
:1028C000002B7ED04FF48063C4F201034FF480628A
:1028D000C4F20102126811467A6812686FEA0202B5
:1028E0000A401A604FF48063C4F201034FF480621F
:1028F000C4F20102526811467A6812686FEA020255
:102900000A405A607B681B79FA68D318FB60FB6841
:10291000FA6811687A6812680A431A604FF4806393
:10292000C4F201034FF48062C4F2010292681146BE
:102930007A6812686FEA02020A409A604FF4806374
:10294000C4F201034FF48062C4F20102D26811465E
:102950007A6812686FEA02020A40DA607B685B7983
:10296000102B1CD14FF48063C4F201034FF480623A
:10297000C4F20102926811467A6812680A439A60AA
:102980004FF48063C4F201034FF48062C4F2010289
:10299000D26811467A6812680A43DA601FE04FF481
:1029A0008063C4F20103FB607B685B79FA68D3182B
:1029B000FB60FB68FA6811687A6812680A431A605B
:1029C0000DE07B681B79FA68D318FB60FB68FA6836
:1029D00011687A6812686FEA02020A401A6007F109
:1029E0001407BD4680BC704780B485B000AF7860E6
:1029F0004FF00003FB734FF00003BB604FF48063A4
:102A0000C4F201031B681A467B681340BB604FF495
:102A10008063C4F201035B691A467B681340002B94
:102A200006D0BB68002B03D04FF00103FB7302E01C
:102A30004FF00003FB73FB7B184607F11407BD46FC
:102A400080BC704780B483B000AF78604FF480637F
:102A5000C4F201037A685A6107F10C07BD4680BCD5
:102A6000704700BF80B58CB000AF786039604FF020
:102A70000003FB624FF00003BB624FF000037B6278
:102A80004FF000033B624FF00003FB617B68FB618A
:102A90007B681B8A9BB2FB62FA6A4CF6FF73134099
:102AA000FB623B68DB88FA6A1343FB62FB6A9AB2FB
:102AB0007B681A827B689B899BB2FB62FA6A4EF63E
:102AC000F3131340FB623B689A883B681B891343EE
:102AD0009AB23B685B8913439BB2FA6A1343FB6269
:102AE000FB6A9AB27B689A817B689B8A9BB2FB6285
:102AF000FA6A4FF6FF431340FB623B689B89FA6A10
:102B00001343FB62FB6A9AB27B689A8207F108035F
:102B10001846FFF785FDFA694FF46053C4F20103CC
:102B20009A4202D17B69BB6201E03B69BB627B6870
:102B30009B899BB29BB21BB2002B0FDABA6A134679
:102B40004FEA83039B184FEA83029A183B681B687D
:102B50004FEA4303B2FBF3F37B620EE0BA6A13461B
:102B60004FEA83039B184FEA83029A183B681B685D
:102B70004FEA8303B2FBF3F37B627A6A48F21F5396
:102B8000C5F2EB13A3FB02134FEA53134FEA0313EF
:102B9000FB62FB6A4FEA13134FF0640202FB03F37C
:102BA0007A6AD31A3B627B689B899BB29BB21BB249
:102BB000002B12DA3B6A4FEAC30303F1320248F2F8
:102BC0001F53C5F2EB13A3FB02134FEA531303F099
:102BD0000703FA6A1343FB6211E03B6A4FEA0313EF
:102BE00003F1320248F21F53C5F2EB13A3FB0213A9
:102BF0004FEA531303F00F03FA6A1343FB62FB6AB5
:102C00009AB27B681A8107F13007BD4680BD00BFCC
:102C100080B483B000AF78600B46FB70FB78002B6C
:102C200008D07B689B899BB243F400539AB27B68BF
:102C30009A8107E07B689B899BB223F400539AB288
:102C40007B689A8107F10C07BD4680BC704700BFC6
:102C500080B487B000AF786013460A467A807B70F4
:102C60004FF000033B614FF00003FB604FF00003A7
:102C7000BB604FF000037B617B687B617B88DBB2CC
:102C80004FEA5313DBB23B617B8803F01F03FB6009
:102C9000FB684FF0010202FA03F3BB603B69012BB2
:102CA00004D17B6903F10C037B610BE03B69022BD0
:102CB00004D17B6903F110037B6103E07B6903F1BD
:102CC00014037B617B78002B06D07B697A691168DD
:102CD000BA680A431A6007E07B697A691168BA68C2
:102CE0006FEA02020A401A6007F11C07BD4680BC69
:102CF000704700BF80B483B000AF78600B467B8024
:102D00007B884FEAC3534FEAD3539AB27B689A80C9
:102D100007F10C07BD4680BC704700BF80B485B08A
:102D200000AF78600B467B804FF00003FB737B683D
:102D30001B889AB27B8813409BB2002B03D04FF0C4
:102D40000103FB7302E04FF00003FB73FB7B1846AB
:102D500007F11407BD4680BC704700BF80B487B040
:102D600000AF78600B467B804FF00003FB604FF0B4
:102D700000037B614FF00003BB604FF00003FB7466
:102D80007B88DBB24FEA5313DBB2BB607B8803F076
:102D90001F037B617B694FF0010202FA03F37B6141
:102DA000BB68012B06D17B689B899BB27A69134073
:102DB0007B610FE0BB68022B06D17B681B8A9BB24C
:102DC0007A6913407B6105E07B689B8A9BB27A69D4
:102DD00013407B617B884FEA13239BB2FB60FB6847
:102DE0004FF0010202FA03F3FB607B681B889BB281
:102DF000FA681340FB607B69002B06D0FB68002B50
:102E000003D04FF00103FB7402E04FF00003FB74AA
:102E1000FB7C184607F11C07BD4680BC704700BF0D
:102E200080B485B000AF78600B467B804FF0000324
:102E3000FB814FF00003BB817B884FEA1323FB81AA
:102E4000FB894FF0010202FA03F3BB81BB896FEAF1
:102E500003039AB27B681A8007F11407BD4680BC51
:102E6000704700BF80B485B000AF786040F60813AB
:102E7000C2F200031B68002B08D140F60813C2F20F
:102E8000000340F63842C2F200021A6040F608130E
:102E9000C2F200031B68FB6040F60813C2F2000395
:102EA0001A687B68D21840F60813C2F200031A6051
:102EB000FB68184607F11407BD4680BC704700BF89
:102EC00080B487B000AF78604FF000037B614FF0B3
:102ED00000033B614FF00F03FB607B68DB78002B46
:102EE00047D04FF46D43CEF20003DB686FEA030373
:102EF00003F4E0634FEA13237B617B69C3F10403AE
:102F00003B617B69FA6822FA03F3FB607B685B78BC
:102F10001A463B6902FA03F37B617B689B781A4689
:102F2000FB6813407A6913437B617B694FEA0313A3
:102F30007B614FF46143CEF200037A681278114648
:102F40007A69D2B25B1883F800234FF46143CEF262
:102F500000037A6812784FEA5212D2B2796809787F
:102F600001F01F014FF0010000FA01F143F82210B7
:102F700014E04FF46143CEF200037A6812784FEA0E
:102F80005212D2B27968097801F01F014FF00100A6
:102F900000FA01F102F1200243F8221007F11C07A8
:102FA000BD4680BC704700BF10B542F2FB1221F055
:102FB0000043C3F6E972934286B01CDD4FF6FF7200
:102FC000C7F6EF72934205DD02460B4601F0A8F901
:102FD00006B010BD02AA00F06FF8DDE9042300F08E
:102FE0000304012CDDE902010FD0022C08D094B9B2
:102FF00000F086FAECE70022002300F081FAE7E710
:1030000000F07EFA01F10041E2E7009400F0A8FF31
:1030100001F10041DCE70124009400F0A1FFD7E7B3
:1030200010B542F2FB1221F00043C3F6E97293425D
:1030300086B01EDD4FF6FF72C7F6EF72934205DDD4
:1030400002460B4601F06CF906B010BD02AA00F072
:1030500033F800F0030001281DD0022810D008BB6F
:103060000124DDE90201DDE90423009400F078FF8A
:10307000EAE7002400220023009400F071FFE3E758
:10308000DDE90201DDE904230124009400F068FF7A
:1030900001F10041D8E7DDE90201DDE9042300F098
:1030A0002FFAD1E7DDE90201DDE9042300F028FA77
:1030B00001F10041C8E700BF2DE9F04F42F2FB13D8
:1030C00021F00044C3F6E9739C428FB00E461746C8
:1030D00040F3A4804DF67B13C4F202039C4226DC2D
:1030E000002995A3D3E9002340F3B28101F018F938
:1030F00042F2FB13C3F6F9739C428046894600F006
:10310000A2808FA3D3E9002301F00AF902460B46FF
:10311000C7E900014046494601F002F988A3D3E916
:10312000002301F0FDF80125C7E902017DE042F22C
:10313000FB13C4F239139C4240F3A2804FF6FF7395
:10314000C7F6EF739C4274DC4FEA245AAAF5826AF0
:10315000AAF1060AA4EB0A5319469946804601F0E3
:103160002DFD01F02BFA04460D4602460B46404663
:103170004946CDE9084501F0D3F800230022C4F206
:10318000701301F081FA0D46044601F017FD01F0BD
:1031900015FA02460B468046894620462946CDE967
:1031A0000A8901F0BDF800230022C4F2701301F077
:1031B0006BFA002204460D460023CDE90C4501F0D0
:1031C000CBFC002800F065814046494600220023E0
:1031D00001F0C2FC03240AAD013C40B175E90201D3
:1031E0000022002301F0B8FC013C0028F6D1234660
:1031F000022400945A4C08A839465246019400F023
:10320000A7FA002E054610DA7A68FB6802F1004240
:1032100003F100437A60FB60454206E0C2E9000129
:1032200000230022C7E90223002528460FB0BDE88D
:10323000F08F02460B4601F073F80025C7E9020142
:10324000C7E90001F1E740A3D3E9002301F068F8E2
:103250003FA3D3E900230D46044601F061F802467E
:103260000B46C7E900012946204601F059F838A36A
:10327000D3E9002301F054F80125C7E90201D4E79E
:1032800000F026FF34A3D3E900238046894601F0ED
:10329000FBF900230022C3F6E07301F043F801F0CC
:1032A0008DFC054601F08AF923A3D3E90023CDE97B
:1032B000020101F0E9F902460B464046494601F099
:1032C0002FF81FA3D3E9002382468B46DDE90201D4
:1032D00001F0DAF91F2DCDE904015046594643DCCF
:1032E000204B6A1E53F82230A3423DD0DDE904236F
:1032F00001F016F802460B46C7E9002381468846CE
:103300004A4643465046594601F00AF8DDE904238F
:1033100001F006F8002E02460B46C7E9022384DAC4
:1033200008F1004301F10041C7F800907B60B860EC
:10333000F9606D4279E700BF00004054FB21F93F7E
:103340003163621A61B4D03D0000601A61B4D03DAF
:103350007370032E8A19A33B83C8C96D305FE43FA5
:103360005C820008DC810008DDE9042300F0D8FF5E
:1033700088462415C8F30A53E31A102B8146C7E97F
:103380000001BDDD54A3D3E90023DDE9020101F012
:103390007BF98046894642464B465046594600F0E6
:1033A000BFFFCDE90601DDE906235046594600F08E
:1033B000B7FF42464B4600F0B3FF49A3D3E90023D1
:1033C00080468946DDE9020101F05EF942464B463E
:1033D00000F0A6FFCDE90401DDE90423DDE90601E3
:1033E00000F09EFF8846C8F30A53E31A312B81464A
:1033F000C7E900016DDD3CA3D3E90023DDE902014B
:1034000001F042F98046894642464B46DDE9060115
:1034100000F086FF82468B4652465B46DDE9060198
:1034200000F07EFF42464B4600F07AFF30A3D3E91E
:10343000002380468946DDE9020101F025F9424674
:103440004B4600F06DFFCDE90401504659464DE76B
:1034500000F068FF42F2FB13C3F6F9739C4280460A
:10346000894618D024A3D3E9002300F05BFF02466D
:103470000B46C7E900014046494600F051FF1EA334
:10348000D3E9002300F04EFF4FF0FF35C7E90201FA
:10349000CBE60324ABE610A3D3E9002300F042FF00
:1034A0000FA3D3E900230D46044600F03BFF02467C
:1034B0000B46C7E900012946204600F031FF08A36A
:1034C000D3E9002300F02EFF4FF0FF35C7E90201DA
:1034D000ABE6DDE906AB13E70000601A61B4D03D4E
:1034E0007370032E8A19A33B0000002E8A19A33B98
:1034F000C14920259A837B393163621A61B4D03D7A
:103500002DE9F04F21F0004487B0B4F1795F824695
:103510008B46CDE900236DDA01F050FB002800F066
:10352000FA8052465B465046594601F0ADF87CA3FE
:10353000D3E9002306460F4601F0A6F87AA3D3E9A3
:10354000002300F0EFFE32463B4601F09DF878A3E1
:10355000D3E9002300F0E4FE32463B4601F094F844
:1035600075A3D3E9002300F0DDFE32463B4601F0AF
:103570008BF873A3D3E9002300F0D2FE32463B461A
:1035800001F082F870A3D3E9002300F0CBFE3246AD
:103590003B4601F079F880468946002300223046F8
:1035A0003946C3F6E07301F06FF84246CDE90201F7
:1035B0004B463046394601F067F8DDE90023044602
:1035C0000D465046594601F05FF802460B4620462C
:1035D000294600F0A5FE02460B46DDE9020100F097
:1035E0009FFE0B4600210246C3F6F071002000F05A
:1035F00097FE84E052465B465046594601F044F837
:1036000047A3D3E9002306460F4601F03DF846A341
:10361000D3E9002300F086FE32463B4601F034F841
:1036200043A3D3E9002300F07BFE32463B4601F082
:103630002BF841A3D3E9002300F074FE32463B4649
:1036400001F022F83EA3D3E9002300F069FE3246E0
:103650003B4601F019F83CA3D3E9002300F062FED9
:103660003B46324601F010F843F23233C3F6D373CF
:103670009C428046894690DD0023C3F6E973002210
:103680009C424FF000033DDC0021A4F50013002212
:103690000020C3F6F07114461D4600F041FECDE94E
:1036A000040100230022C3F6E0733046394600F0DF
:1036B000EBFF22462B4600F033FE4246CDE90201E5
:1036C0004B463046394600F0DFFFDDE90023044673
:1036D0000D465046594600F0D7FF02460B4620469D
:1036E000294600F01DFE02460B46DDE9020100F00E
:1036F00017FE02460B46DDE9040100F011FE07B09B
:10370000BDE8F08FC3F6E7730025CDE9042300245C
:10371000C3F6D275C5E700210020C3F6F071EEE7CD
:10372000D43888BEE9FAA8BDC4B1B4BD9EEE213E2E
:10373000AD529C804F7E923E9015CB19A001FA3E6F
:103740007751C1166CC1563F4C5555555555A53F3F
:103750002DE9F04F4AF6AB25D41EC2F6AA2585FB0B
:103760000465E417C4EBA504ADF51B7D24EAE474FD
:103770001F460A94E343A49D834C7E1E54F82540C3
:1037800003EB430302EBC30316EB04080994029610
:103790000690089107931FD40A9CA598A51B08F1D1
:1037A00001080CAE4FEA8808002400EB850909E007
:1037B00059F8040000F002FF043401354445E6E9FD
:1037C000020109D0002DF3DA043400200021013574
:1037D0004445E6E90201F5D1099C002C2CDB099C4B
:1037E0005EAE06EBC4060DF5B87ABB460096029DA8
:1037F000002DC0F267820EA8069D00EBCB064FF0AD
:1038000000084FF00009002476E90223F5E80201E0
:1038100000F03AFF02460B464046494600F082FD62
:103820000134BC4280468946EED1EAE90289009D16
:103830000BF1010BAA45DAD1099E86AC731E9B00E1
:103840009AAD04EB8604ED180B9300960C940D953D
:10385000009C009EE4009AAD2B19002E049453E9BD
:103860003C892EDD04985EAC059485AE25180023B6
:103870000022C3F670634046494600F005FF01F0A0
:103880009DF900F09BFE00230022C4F270138246D3
:103890008B4600F0F9FE02460B464046494600F0D2
:1038A0003FFD01F08BF9044646F8044F75E902012B
:1038B00052465B4600F036FD059C8046A54289468F
:1038C000D5D1079A4046494600F09EFC00224FF0B1
:1038D0007F5304460D4600F0D7FE00F0FDFB0023A9
:1038E0000022C4F2200300F0CFFE02460B46204621
:1038F000294600F015FD0D46044601F05FF9064625
:1039000000F05CFE02460B462046294600F008FD0A
:10391000079D8046002D894640F3BC81009C9AADEE
:10392000631E05EB8303079D53F8501CC5F1180473
:1039300051FA04F212FA04F4C5F11700091B51FA06
:1039400000F5B61843F8501C002D29DD009C013607
:10395000002C40F3AB8086AB03EB8400002408E02E
:10396000C1F1807211B143F8042C0124834200F0AC
:103970009E804FF6FF72C0F2FF0253F8041B002C2A
:10398000EED0521AEFE700BF688300080023002240
:10399000C3F6E07301F0FEF8002840F0A081002596
:1039A000404649460022002301F0D6F8002800F0E6
:1039B000BB80009C601E099C84420EDC009C86A992
:1039C00001EB84030C9C002253F8041DA34242EA3D
:1039D0000102F9D1002A40F081820D9C54F8503C3C
:1039E000002B40F094820B9D86AE7219012352F891
:1039F000041D01330029FAD0009CE31804F1010AE8
:103A00009A45059341DC0A9E029D04EB060BA59C9A
:103A100005EB0A0304EB8B0B049C013B0EAD5EAE81
:103A200005EBC3053619009504965BF8040F00F00A
:103A3000C5FD009D029EE5E90201002E009527DBF1
:103A40000AEB07060EA8069D00EBC6064FF000081D
:103A50004FF00009002476E90223F5E8020100F0A6
:103A600013FE02460B464046494600F05BFC01341B
:103A7000BC4280468946EED1049C059DE4E902895A
:103A80000AF1010AAA450494CFDD059E0096DFE6FF
:103A9000049C4FF000084FF00009E4E90289059DFD
:103AA0000AF1010AAA450494BFDDEEE70024079855
:103AB000002811DD012800F0F78002280CD10098C1
:103AC0009AA9431E01EB830353F8502C22F07F4246
:103AD00022F4400243F8502C022D7FF461AF002104
:103AE00042464B460020C3F6F07100F019FC8046B8
:103AF0008946002C3FF454AF0021079A0020C3F6FA
:103B0000F07100F081FB02460B464046494600F04A
:103B100007FC80468946404649460022002301F0C2
:103B20001BF800287FF445AF05960495002840F067
:103B3000F081079C40466242494600F065FB002345
:103B40000022C4F2701304460D4601F023F8002849
:103B500000F0ED8100230022C3F670632046294661
:103B600000F092FD01F02AF800F028FD0023002269
:103B7000C4F2701306460F4600F086FD02460B465F
:103B80002046294600F0CCFB01F018F8009D0246C3
:103B90009AA800EB850343F8502C01359AAA3046C9
:103BA000394602EB8504009501F008F8079D44F8BA
:103BB000500C1835079500210020C3F6F071079AC4
:103BC00000F022FB009C0646002C0F4659DB013416
:103BD0005EAD86A85EA9069500EB840501EBC404E2
:103BE00055F8040D00F0EAFC32463B4600F04CFD6F
:103BF000002364E90201002230463946C3F67063AF
:103C000000F042FD069A064694420F46E8D1009C19
:103C10000DF1D80B04F1FF3ADDF824800027D146DE
:103C2000CDF808B0B8F1000FC0F24581002FC0F206
:103C300042815EA8904D00EBC9064FF0000A4FF09C
:103C4000000B002401E0BC4210DCF6E90223F5E998
:103C5000020100F019FD02460B465046594600F09D
:103C600061FB0134A04582468B46ECDA029D09F1E6
:103C7000FF3905EBC703013719F1020FC3E900ABA8
:103C8000D0D1A49C032C40D8DFE814F0F800B60093
:103C9000B60046007FF47AAE009C9AAD05EB840333
:103CA00053F8545CED154FE600999AAA4B1E02EBAF
:103CB000830353F8502C22F07F4222F4000243F891
:103CC000502C09E74FF000084FF00009EAE902899B
:103CD000009D0BF1010BAA457FF489ADACE50225EF
:103CE00034E6002426460DF1D80B049D002D75D036
:103CF000089D9BE80F0001F1004103F1004385E8B6
:103D00000F0006F100462C616E61059E06F007006B
:103D10000DF51B7DBDE8F08F009E002EE1DD009CBF
:103D20000DF1D80B651C0BEBC5050DF1E00A2C4617
:103D300054E9028954E9046742464B463046394605
:103D400000F0F0FACDE90201DDE902233046394600
:103D500000F0E6FA02460B464046494600F0E2FA19
:103D600064E90201DDE90201544544E90201DFD1C1
:103D7000009C012C40F3EE800BF1100A2C4654E914
:103D8000028954E9046742464B463046394600F002
:103D9000C9FACDE90001DDE900233046394600F0DB
:103DA000BFFA02460B464046494600F0BBFA64E9BA
:103DB0000201DDE90001544544E90201DFD100249C
:103DC00026462046314675E9022300F0ABFA5545F8
:103DD00004460E46F5D1049D002D89D13346089E38
:103DE0002246DBE90001DBE90245C6E90001C6E93C
:103DF0000245C6E9042388E7009C002CC0F2A58098
:103E0000009E0DF1D80B741C00220BEBC40413466A
:103E10001046194674E9022300F084FA5C45024614
:103E20000B46F5D1049C002C56D003F10044089EAB
:103E300010462146C6E90001DBE9000100F070FAF6
:103E4000009C0246002C0B460BDD0BEBC404104615
:103E50001946FBE9022300F065FAA34502460B462A
:103E6000F5D1049D0DB103F10043089E104619469B
:103E7000C6E9020149E700BF70830008009D002DDC
:103E800060DB36AC0135002704EBC5053E463846FD
:103E9000314675E9022300F045FAA54207460E4671
:103EA000F5D1049C0CB106F10046089D3A46334614
:103EB000C5E9002329E7029D09F1FF3905EBC70396
:103EC0004FF0000A4FF0000B013719F1020FC3E960
:103ED00000AB7FF4A7AED4E61C46A8E704958300A8
:103EE0009AAD0596EA18079E52F8502C183E079690
:103EF000DAB986A9CB1800900246314653F8040D72
:103F0000013A18390028F9D00092079153E60123AD
:103F100072E5009C9AAD601E8300079EEA1852F875
:103F2000502C183E0796002AE3D0009043E629461D
:103F3000204600F043FE009E9AA901EB860343F859
:103F4000500C38E600273E46ABE7002213460DF141
:103F5000D80B67E700242646C7E600BF0000000034
:103F60002DE9F04F0F4621F0004185B0B1F1795FA6
:103F70000646CDE9022304DA394600F01FFE002888
:103F80006ED032463B463046394600F07DFB324625
:103F90003B4604460D4600F077FB41A3D3E90023DE
:103FA000CDE900012046294600F06EFB3EA3D3E98F
:103FB000002300F0B5F922462B4600F065FB3CA338
:103FC000D3E9002300F0AEF922462B4600F05CFB5B
:103FD00039A3D3E9002300F0A3F922462B4600F0D1
:103FE00053FB37A3D3E9002300F09CF90E9B8046D6
:103FF0008946002B39D000230022C3F6E073DDE9A7
:10400000020100F041FB424682468B464B46DDE909
:10401000000100F039FB02460B465046594600F0BD
:104020007FF922462B4600F02FFBDDE9022300F04A
:1040300077F925A3D3E9002304460D46DDE9000105
:1040400000F022FB02460B462046294600F06AF9A2
:1040500002460B463046394600F062F906460F46E6
:104060003046394605B0BDE8F08F02460B46204683
:10407000294600F009FB14A3D3E9002300F050F90E
:10408000DDE9002300F000FB02460B4630463946CE
:1040900000F048F906460F46E2E700BFAFF30080A4
:1040A0007CD5CF5A3AD9E53DEB9C2B8AE6E55A3EC2
:1040B0007DFEB157E31DC73ED561C119A0012A3F5E
:1040C000A6F810111111813F495555555555C53F59
:1040D00021F00041704700BF2DE9F047C1F30A56B7
:1040E000A6F57E74073C132C804689460D468A4609
:1040F000074621DC002C43DB4FF6FF73C0F20F03B1
:1041000053FA04F606EA0105054313D03CA3D3E9AC
:10411000002300F007F90022002300F045FD0028ED
:104120003FD0B9F1000F61DB2AEA060A4FF0000820
:1041300051464046BDE8F087332C08DDB4F5806F6A
:10414000F8D102460B4600F0EDF8BDE8F087A6F581
:104150008263033B4FF0FF3232FA03F50542E9D0A8
:1041600027A3D3E9002300F0DDF80022002300F0AC
:104170001BFDB0B1B9F1000F18DB28EA050811E00A
:104180001FA3D3E9002300F0CDF80022002300F0A4
:104190000BFD38B1B9F1000F19DB4FF00008C24632
:1041A00000E0CA4651464046BDE8F087142C09D0CD
:1041B000C6F5866303334FF0010808FA03F818EBDD
:1041C0000708DAD30AF1010A28EA0508EAE729F024
:1041D000004848EA07084FF0000AD045CBF6F07ACD
:1041E00008BFCA4618BF4FF00008DBE74FF4801342
:1041F00053FA04F409EB040A96E700BFAFF300801A
:104200009C7500883CE4377EC1F30A5370B50446C0
:104210000E461546002B33D121F0004606432ED022
:10422000002343F6B0440022C4F25033CFF6FF74AB
:1042300000F02AFAA54243DBC1F30A53363B5B196F
:1042400040F2FE7293420E4623DD02460B4628A141
:10425000D1E9000100F054F825A3D3E9002300F0D0
:1042600013FA70BD26F0FE46363326F4700646EA91
:10427000035100230022C3F6904300F005FA70BDFD
:1042800040F2FF72934221D05B1940F2FE729342DA
:10429000DBDC002B06DD26F0FE4626F4700646EA3F
:1042A000035170BD13F1350FDCDA4CF250339D42EF
:1042B00002460B460FDC10A1D1E9000100F020F806
:1042C0000DA3D3E9002300F0DFF970BD02460B46D1
:1042D00000F028F870BD06A1D1E9000100F010F847
:1042E00003A3D3E9002300F0CFF970BDAFF3008042
:1042F0009C7500883CE4377E59F3F8C21F6EA50117
:1043000003F0004221F0004330B40D46044642EA77
:10431000030130BC704700BF81F0004102E000BFE4
:1043200083F0004330B54FEA41044FEA430594EA75
:10433000050F08BF90EA020F1FBF54EA000C55EAB0
:10434000020C7FEA645C7FEA655C00F0E2804FEA81
:104350005454D4EB5555B8BF6D420CDD2C4480EA63
:10436000020281EA030382EA000083EA010180EA93
:10437000020281EA0303362D88BF30BD11F0004FE1
:104380004FEA01314FF4801C4CEA113102D0404217
:1043900061EB410113F0004F4FEA03334CEA133352
:1043A00002D0524263EB430394EA050F00F0A7806A
:1043B000A4F10104D5F1200E0DDB02FA0EFC22FA65
:1043C00005F2801841F1000103FA0EF2801843FA59
:1043D00005F359410EE0A5F120050EF1200E012A4A
:1043E00003FA0EFC28BF4CF0020C43FA05F3C01888
:1043F00051EBE37101F0004507D54FF0000EDCF101
:10440000000C7EEB00006EEB0101B1F5801F1BD3A9
:10441000B1F5001F0CD349085FEA30004FEA3C0CAD
:1044200004F101044FEA445212F5800F80F09A80A3
:10443000BCF1004F08BF5FEA500C50F1000041EBA7
:10444000045141EA050130BD5FEA4C0C404141EBAB
:10445000010111F4801FA4F10104E9D191F0000FD2
:1044600004BF01460020B1FA81F308BF2033A3F155
:104470000B03B3F120020CDA0C3208DD02F1140C4C
:10448000C2F10C0201FA0CF021FA02F10CE002F187
:104490001402D8BFC2F1200C01FA02F120FA0CFC80
:1044A000DCBF41EA0C019040E41AA2BF01EB0451C9
:1044B000294330BD6FEA04041F3C1CDA0C340EDCC7
:1044C00004F11404C4F1200220FA04F001FA02F30A
:1044D00040EA030021FA04F345EA030130BDC4F1C8
:1044E0000C04C4F1200220FA02F001FA04F340EABD
:1044F0000300294630BD21FA04F0294630BD94F06E
:10450000000F83F4801306BF81F480110134013D54
:104510004EE77FEA645C18BF7FEA655C29D094EAC5
:10452000050F08BF90EA020F05D054EA000C04BF43
:104530001946104630BD91EA030F1EBF002100202E
:1045400030BD5FEA545C05D14000494128BF41F0CD
:10455000004130BD14F580043CBF01F5801130BD31
:1045600001F0004545F0FE4141F470014FF00000BC
:1045700030BD7FEA645C1ABF194610467FEA655C6D
:104580001CBF0B46024650EA013406BF52EA03350F
:1045900091EA030F41F4002130BD00BF90F0000FFD
:1045A00004BF0021704730B54FF4806404F1320439
:1045B0004FF000054FF0000150E700BF90F0000FF2
:1045C00004BF0021704730B54FF4806404F1320419
:1045D00010F0004548BF40424FF000013EE700BFE9
:1045E00042004FEAE2014FEA31014FEA02701FBF79
:1045F00012F07F4393F07F4F81F06051704792F04B
:10460000000F14BF93F07F4F704730B54FF46074C4
:1046100001F0004521F0004120E700BF50EA01020F
:1046200008BF704730B54FF000050AE050EA0102BC
:1046300008BF704730B511F0004502D5404261EB2C
:1046400041014FF4806404F132045FEA915C3FF46D
:10465000DCAE4FF003025FEADC0C18BF03325FEA06
:10466000DC0C18BF033202EBDC02C2F1200300FABB
:1046700003FC20FA02F001FA03FE40EA0E0021FAE0
:1046800002F11444C1E600BF70B54FF0FF0C4CF4CA
:10469000E06C1CEA11541DBF1CEA135594EA0C0F80
:1046A00095EA0C0F00F0DEF82C4481EA030621EABB
:1046B0004C5123EA4C5350EA013518BF52EA0335F6
:1046C00041F4801143F4801338D0A0FB02CE4FF0A8
:1046D0000005E1FB02E506F00042E0FB03E54FF0D8
:1046E0000006E1FB03569CF0000F18BF4EF0010ED0
:1046F000A4F1FF04B6F5007F64F5407404D25FEACC
:104700004E0E6D4146EB060642EAC62141EA55517E
:104710004FEAC52040EA5E504FEACE2EB4F1FD0CC0
:1047200088BFBCF5E06F1ED8BEF1004F08BF5FEA3E
:10473000500E50F1000041EB045170BD06F00046F0
:1047400046EA010140EA020081EA0301B4EB5C049D
:10475000C2BFD4EB0C0541EA045170BD41F4801195
:104760004FF0000E013C00F3AB8014F1360FDEBFBA
:10477000002001F0004170BDC4F10004203C35DA96
:104780000C341BDC04F11404C4F1200500FA05F319
:1047900020FA04F001FA05F240EA020001F00042BA
:1047A00021F0004110EBD37021FA04F642EB060130
:1047B0005EEA430E08BF20EAD37070BDC4F10C045A
:1047C000C4F1200500FA04F320FA05F001FA04F21E
:1047D00040EA020001F0004110EBD37041F100010A
:1047E0005EEA430E08BF20EAD37070BDC4F1200515
:1047F00000FA05F24EEA020E20FA04F301FA05F27D
:1048000043EA020321FA04F001F0004121FA04F224
:1048100020EA020000EBD3705EEA430E08BF20EAF4
:10482000D37070BD94F0000F0FD101F0004640002E
:1048300041EB010111F4801F08BF013CF7D041EAB0
:10484000060195F0000F18BF704703F000465200B4
:1048500043EB030313F4801F08BF013DF7D043EA85
:104860000603704794EA0C0F0CEA135518BF95EA3B
:104870000C0F0CD050EA410618BF52EA4306D1D1C2
:1048800081EA030101F000414FF0000070BD50EAE1
:10489000410606BF1046194652EA430619D094EA6B
:1048A0000C0F02D150EA013613D195EA0C0F05D155
:1048B00052EA03361CBF104619460AD181EA0301A9
:1048C00001F0004141F0FE4141F470014FF0000061
:1048D00070BD41F0FE4141F4780170BD70B54FF0FC
:1048E000FF0C4CF4E06C1CEA11541DBF1CEA13557C
:1048F00094EA0C0F95EA0C0F00F0A7F8A4EB05045E
:1049000081EA030E52EA03354FEA013100F0888054
:104910004FEA03334FF0805545EA131343EA12631D
:104920004FEA022245EA111545EA10654FEA0026D2
:104930000EF000419D4208BF964244F1FD0404F58B
:10494000407402D25B084FEA3202B61A65EB0305E7
:104950005B084FEA32024FF480104FF4002CB6EBA4
:10496000020E75EB030E22BFB61A754640EA0C0024
:104970005B084FEA3202B6EB020E75EB030E22BF64
:10498000B61A754640EA5C005B084FEA3202B6EBA5
:10499000020E75EB030E22BFB61A754640EA9C0064
:1049A0005B084FEA3202B6EB020E75EB030E22BF34
:1049B000B61A754640EADC0055EA060E18D04FEAF2
:1049C000051545EA16754FEA06164FEAC30343EA92
:1049D00052734FEAC2025FEA1C1CC0D111F4801F5F
:1049E0000BD141EA00014FF000004FF0004CB6E758
:1049F00011F4801F04BF01430020B4F1FD0C88BFF7
:104A0000BCF5E06F3FF6AFAEB5EB030C04BFB6EB01
:104A1000020C5FEA500C50F1000041EB045170BDF4
:104A20000EF0004E4EEA113114EB5C04C2BFD4EB21
:104A30000C0541EA045170BD41F480114FF0000EA5
:104A4000013C90E645EA060E8DE60CEA135594EA21
:104A50000C0F08BF95EA0C0F3FF43BAF94EA0C0F24
:104A60000AD150EA01347FF434AF95EA0C0F7FF499
:104A700025AF104619462CE795EA0C0F06D152EAED
:104A800003353FF4FDAE1046194622E750EA4106D1
:104A900018BF52EA43067FF4C5AE50EA41047FF4E2
:104AA0000DAF52EA43057FF4EBAE12E74FF0FF3C47
:104AB00006E000BF4FF0010C02E000BF4FF0010C18
:104AC0004DF804CD4FEA410C7FEA6C5C4FEA430C91
:104AD00018BF7FEA6C5C1BD001B050EA410C0CBFE0
:104AE00052EA430C91EA030F02BF90EA020F002042
:104AF000704710F1000F91EA030F58BF994208BFA9
:104B000090422CBFD8176FEAE37040F00100704765
:104B10004FEA410C7FEA6C5C02D150EA013C07D1BC
:104B20004FEA430C7FEA6C5CD6D152EA033CD3D007
:104B30005DF8040B704700BF8446104662468C4601
:104B40001946634600E000BF01B5FFF7B7FF002834
:104B500048BF10F1000F01BD4DF808EDFFF7F4FF5D
:104B60000CBF012000205DF808FB00BF4DF808EDE8
:104B7000FFF7EAFF34BF012000205DF808FB00BF0B
:104B80004DF808EDFFF7E0FF94BF012000205DF82D
:104B900008FB00BF4DF808EDFFF7CEFF94BF0120E2
:104BA00000205DF808FB00BF4DF808EDFFF7C4FFDB
:104BB00034BF012000205DF808FB00BF4FEA41022E
:104BC00012F5001215D211D56FF47873B3EB62525F
:104BD00012D94FEAC12343F0004343EA505311F086
:104BE000004F23FA02F018BF404270474FF0000018
:104BF000704750EA013005D111F0004008BF6FF056
:104C0000004070474FF00000704700BF4FEA41027C
:104C1000B2F1E04324BFB3F5001CDCF1FE5C0DD91A
:104C200001F0004C4FEAC0024CEA5070B2F1004F64
:104C300040EB830008BF20F00100704711F0804F67
:104C400021D113F13872BCBF01F00040704741F42C
:104C500080114FEA5252C2F11802C2F1200C10FA30
:104C60000CF320FA02F018BF40F001004FEAC12314
:104C70004FEAD32303FA0CFC40EA0C0023FA02F3B8
:104C80004FEA4303CCE77FEA625307D150EA01338E
:104C90001EBF4FF0FE4040F44000704701F000405E
:104CA00040F0FE4040F40000704700BF80F000403C
:104CB00002E000BF81F0004142001FBF5FEA4103F4
:104CC00092EA030F7FEA226C7FEA236C6AD04FEAF4
:104CD0001262D2EB1363C1BFD21841404840414039
:104CE000B8BF5B42192B88BF704710F0004F40F4EB
:104CF000000020F07F4018BF404211F0004F41F407
:104D0000000121F07F4118BF494292EA030F3FD0D2
:104D1000A2F1010241FA03FC10EB0C00C3F12003E5
:104D200001FA03F100F0004302D5494260EB400074
:104D3000B0F5000F13D3B0F1807F06D340084FEADF
:104D4000310102F10102FE2A51D2B1F1004F40EBD4
:104D5000C25008BF20F0010040EA0300704749003C
:104D600040EB000010F4000FA2F10102EDD1B0FA07
:104D700080FCACF1080CB2EB0C0200FA0CF0AABFFC
:104D800000EBC25052421843BCBFD040184370479A
:104D900092F0000F81F4000106BF80F400000132A0
:104DA000013BB5E74FEA41037FEA226C18BF7FEA77
:104DB000236C21D092EA030F04D092F0000F08BFB9
:104DC0000846704790EA010F1CBF0020704712F0A0
:104DD0007F4F04D1400028BF40F00040704712F1DF
:104DE00000723CBF00F50000704700F0004343F044
:104DF000FE4040F4000070477FEA226216BF08467A
:104E00007FEA23630146420206BF5FEA412390EA3C
:104E1000010F40F4800070474FF0000304E000BF32
:104E200010F0004348BF40425FEA000C08BF7047E3
:104E300043F0964301464FF000001CE050EA0102A7
:104E400008BF70474FF000030AE000BF50EA0102BC
:104E500008BF704711F0004302D5404261EB4101A9
:104E60005FEA010C02BF84460146002043F0B643CE
:104E700008BFA3F18053A3F50003BCFA8CF2083AF3
:104E8000A3EBC25310DB01FA02FC634400FA02FCFC
:104E9000C2F12002BCF1004F20FA02F243EB020003
:104EA00008BF20F00100704702F1200201FA02FC65
:104EB000C2F1200250EA4C0021FA02F243EB020058
:104EC00008BF20EADC7070474FF0FF0C1CEAD0529C
:104ED0001EBF1CEAD15392EA0C0F93EA0C0F6FD05D
:104EE0001A4480EA010C400218BF5FEA41211ED03B
:104EF0004FF0006343EA501043EA5111A0FB013127
:104F00000CF00040B1F5000F3EBF490041EAD371FB
:104F10005B0040EA010062F17F02FD2A1DD8B3F177
:104F2000004F40EBC25008BF20F00100704790F0E6
:104F3000000F0CF0004C08BF49024CEA502040EA38
:104F400051207F3AC2BFD2F1FF0340EAC2507047FE
:104F500040F400004FF00003013A5DDC12F1190F3C
:104F6000DCBF00F000407047C2F10002410021FAAE
:104F700002F1C2F1200200FA02FC5FEA310040F1C6
:104F8000000053EA4C0308BF20EADC70704792F03F
:104F9000000F00F0004C02BF400010F4000F013A77
:104FA000F9D040EA0C0093F0000F01F0004C02BF72
:104FB000490011F4000F013BF9D041EA0C018FE7E1
:104FC0000CEAD15392EA0C0F18BF93EA0C0F0AD0E7
:104FD00030F0004C18BF31F0004CD8D180EA01000D
:104FE00000F00040704790F0000F17BF90F0004FA6
:104FF000084691F0000F91F0004F14D092EA0C0F88
:1050000001D142020FD193EA0C0F03D14B0218BF1A
:10501000084608D180EA010000F0004040F0FE4060
:1050200040F40000704740F0FE4040F440007047FC
:105030004FF0FF0C1CEAD0521EBF1CEAD15392EA7B
:105040000C0F93EA0C0F69D0A2EB030280EA010C6B
:1050500049024FEA402037D04FF0805343EA111104
:1050600043EA10130CF000408B4238BF5B0042F162
:105070007D024FF4000C8B4224BF5B1A40EA0C0007
:10508000B3EB510F24BFA3EB510340EA5C00B3EB39
:10509000910F24BFA3EB910340EA9C00B3EBD10F27
:1050A00024BFA3EBD10340EADC001B0118BF5FEA79
:1050B0001C1CE0D1FD2A3FF650AF8B4240EBC250A2
:1050C00008BF20F0010070470CF0004C4CEA502063
:1050D0007F32C2BFD2F1FF0340EAC250704740F4B2
:1050E00000004FF00003013A37E792F0000F00F0A4
:1050F000004C02BF400010F4000F013AF9D040EA22
:105100000C0093F0000F01F0004C02BF490011F4B5
:10511000000F013BF9D041EA0C0195E70CEAD153AD
:1051200092EA0C0F08D142027FF47DAF93EA0C0F94
:105130007FF470AF084676E793EA0C0F04D14B0278
:105140003FF44CAF08466EE730F0004C18BF31F02A
:10515000004CCAD130F000427FF45CAF31F0004324
:105160007FF43CAF5FE700BF4FF0FF3C06E000BFBD
:105170004FF0010C02E000BF4FF0010C4DF804CDE0
:105180004FEA40024FEA41037FEA226C18BF7FEAF0
:10519000236C11D001B052EA530C18BF90EA010FF2
:1051A00058BFB2EB030088BFC81738BF6FEAE17081
:1051B00018BF40F0010070477FEA226C02D15FEA1D
:1051C000402C05D17FEA236CE4D15FEA412CE1D089
:1051D0005DF8040B704700BF844608466146FFE750
:1051E0000FB5FFF7C9FF002848BF10F1000F0FBD32
:1051F0004DF808EDFFF7F4FF0CBF012000205DF82B
:1052000008FB00BF4DF808EDFFF7EAFF34BF0120AF
:1052100000205DF808FB00BF4DF808EDFFF7E0FF48
:1052200094BF012000205DF808FB00BF4DF808ED99
:10523000FFF7D2FF94BF012000205DF808FB00BFFC
:105240004DF808EDFFF7C8FF34BF012000205DF8DE
:1052500008FB00BF4FEA4002B2F1FE4F0FD34FF000
:105260009E03B3EB12620DD94FEA002343F00043D3
:1052700010F0004F23FA02F018BF404270474FF081
:105280000000704712F1610F01D1420205D110F008
:10529000004008BF6FF0004070474FF000007047BB
:1052A000002100F09DBF00BF00210A2201F088B854
:1052B00000220A2300F0F4BF80EA0102844612F0C3
:1052C000030F4FD111F0030F32D14DF8044D11F0FF
:1052D000040F51F8043B0BD0A3F101329A4312F0B2
:1052E000803F04BF4CF8043B51F8043B16D100BF8B
:1052F00051F8044BA3F101329A4312F0803FA4F11C
:1053000001320BD14CF8043BA24312F0803F04BFA2
:1053100051F8043B4CF8044BEAD023460CF8013B0F
:1053200013F0FF0F4FEA3323F8D15DF8044B7047B9
:1053300011F0010F06D011F8012B0CF8012B002AF7
:1053400008BF704711F0020FBFD031F8022B12F0E6
:10535000FF0F16BF2CF8022B8CF8002012F47F4FA1
:10536000B3D1704711F8012B0CF8012B002AF9D1A9
:10537000704700BF0000000010B4026808E05378D6
:105380000132402B02DD5A2BD8BF2033A34208D173
:1053900011F8014B002CF2D101320260012010BC47
:1053A00070470020FBE700BF2DE9F04F0E469DB08F
:1053B000814600210020CDE904010F921996324662
:1053C000134612F8015B2D2D3CD8DFE805F0373B82
:1053D0003B3B3B3B3B3B3B35353535353B3B3B3B3B
:1053E0003B3B3B3B3B3B3B3B3B3B3B3B3B3B353B13
:1053F0003B3B3B3B3B3B3B3B3B323B17012410944D
:1054000003F10108CDF864805D78002D1DD1089569
:10541000AA460025199610950F9C0CB1199B236084
:10542000109D0DB10AF1004A089851461DB0BDE823
:10543000F08F00251095E3E71992C1E70024089446
:10544000A246E6E7002498461094302D00F0EB8049
:105450000023089300272F2D40F34284392D00F3B9
:105460003F844246BB463C460FE00BEB8B0B05EB03
:105470004B0BABF1300B013408EB0403199312F81A
:10548000015F2F2D12DD392D10DC0F2CF3DC082CE1
:10549000EBDD013408EB040307EB8707199305EBF9
:1054A000470712F8015F303F2F2DECDC484603938D
:1054B00001F0CAFB02464846D2F800A001F0C4FB46
:1054C000006802F09DF9039B02465146184602F01F
:1054D000C7F98246002800F0BD800022069492465B
:1054E0000992652D53D0452D51D0002306990029EE
:1054F00045D0CAEB030A5846CDF828A0FFF74EF86E
:10550000069D069A102DA8BF1025002C18BF224614
:105510000B920B460246092DCDE9042315DD964B6F
:1055200003EBC50353E91223FFF7AEF8CDE90401FD
:105530003846FFF733F802460B46DDE90401FEF773
:10554000F1FE02460B46CDE90423069C0F2C00F326
:10555000DC800A9C002C00F04F820A9C40F33D85C1
:10556000162C00F303858449DDE9042301EBC40113
:10557000D1E90001FFF788F808908A464CE7002A35
:1055800000F00482049ADDF814A0089244E7069D16
:1055900015B9002A00F02282199E731C19937578A0
:1055A0002B2D00F012822D2D00F0098200200B908F
:1055B000A5F13003092B00F2F581302D07D1199B9D
:1055C00019460133199311F8015F302DF9D0A5F177
:1055D0003103082B89D81999A5F1300C481C199072
:1055E0004D782F2D11DD392D03DD0EE0392D0CDC2A
:1055F0001846431C19930CEB8C0C05EB4C0C4578AE
:10560000ACF1300C2F2D1846F0DC431A082B44F671
:105610001F6302DC9C45B8BF63460B9800283FF42B
:1056200065AF5B4262E798F80130582B00F0448385
:10563000782B00F04183434642460132199213F819
:10564000015F302DF9D09046002D00F0C18101247A
:105650000894FFE64846199D01F0F6FA006802F04A
:10566000CFF805EB000CCDF864C02D5C002C40F0A9
:105670009C81302D40F0FC846346224601320CEBC5
:105680000201199113F8015F302DF7D0A5F1310314
:10569000082B00F20682DDF8648000209246069016
:1056A000C4460122A5F1300048B3012A924400F01B
:1056B0006C85069D0699AB185D1E01314B1E102BA3
:1056C00008DC0929D5BF0BEB8B0B07EB87074FEAEB
:1056D0004B0B7F00A942F0D1069DAB18013B5D1C2E
:1056E000102B069500F3A484092DD5BF0BEB8B0B73
:1056F00007EB870700EB4B0B00EB470700220CF191
:10570000010319939CF8015051E1069C651B0A9C0A
:105710006519002D40F37E8315F00F000CD016495B
:10572000DDE9042301EBC001D1E90001FEF7ACFF84
:1057300002460B46CDE9042335F00F0440F06181A9
:10574000049DDDF814A008950994484641460B9A3B
:10575000069BCDF800B001F03DFB0A9C0E90002C9A
:10576000C0F22E8400250B950A9C0E9D24EAE47459
:105770000C3511950A94D8E03885000802F5866347
:105780000333F518C31809981C18B542B4BF2B464B
:105790003346A342A8BF2346002B02DDED1AE41ACC
:1057A000F61A0B9989B139460B9A484601F056FC16
:1057B0001A9A01460746484601F0AEFB1A99804600
:1057C000484601F0BBFACDF86880002D05DD48465B
:1057D0001A992A4601F08EFC1A900A9D2DB159465D
:1057E00048462A4601F03AFC8346002C05DD59461E
:1057F0004846224601F07EFC8346002E05DD3946F0
:105800004846324601F076FC07465A461A99484601
:1058100001F0EEFC0025C4680646F56039460C949C
:1058200001F0C8FCA842C0F2608200F0B1823046AC
:10583000394601F027FE00224FF08043CDE90601F2
:10584000FFF79EF9002800F039810C9C002C00F035
:10585000928100210020C3F6F071CDE906014FF0DE
:105860000008059DCDF83480C3F6F07800240023AD
:10587000C7F6F0742C40C7F6E0739C4200F03C8100
:10588000099D25B3B4F1D46F21D80D98414688A362
:10589000D3E90023FFF774F9A0B10D98414602F057
:1058A00063FC002800F0F981FEF778FE0D90884631
:1058B0000C9D002D40F0EF8108F100430D98024649
:1058C000CDE90623079D05F1D6631B1B0793DDE990
:1058D000040101F0F9FC02460B46DDE90601FEF782
:1058E000D3FE02460B46DDE90401FEF71BFDCDE9C0
:1058F0000401059D08908A46099931B90023C7F62D
:10590000F0732B409C4200F0678148461A9901F0E1
:1059100015FA4846594601F011FA4846394601F051
:105920000DFA4846314601F009FA0E9D484669686D
:1059300001F0DEF92A69119902329200834600F1E2
:105940000C0001F093F918AC089A17A95346484681
:105950000091019401F032FD0121034648461A935B
:1059600001F0D0FA179A0746002AC0F200810B9D79
:105970000A98AE18099D189B521BD4186FF47F71BA
:105980008C42FFF6FBAEC3F13603FAE6089B002B10
:105990002DD10998002800F04A820499DDF814A05E
:1059A000089136E519960023A0E552460694A5F124
:1059B000300009280FD80132DDF864C074E60121F7
:1059C0000B91B31C1993B578F2E500250B95F8E718
:1059D0000895AA4620E50123099382E5089B002B40
:1059E0007FF4DAAD049CDDF814A0089411E5049C62
:1059F000DDF814A008940FE5049DDDF814A00895C7
:105A00000AE5B4F59A7F00F3F8812411012C2A4F9E
:105A100040F3B9833D460026DDE9040114F0010F8F
:105A200006F101064FEA640403D0D5E90023FEF72E
:105A30002BFE0835012CF1DC02460B46CDE9042390
:105A4000059B07EBC606A3F154730593DDE9042318
:105A5000D6E90001FEF718FE04460D46CDE90445DF
:105A60000022DDF814A00023C7F6F0720AEA020251
:105A7000C7F6A0439A4200F2C0810023C7F69043C4
:105A80009A4240F2F8824FF6FF752846C7F6EF704B
:105A90004FF0FF310024059004910891824609944B
:105AA00053E60020012106908246099119E500BFC6
:105AB0000000C0FFFFFFDF41288600080023DDE96A
:105AC00006010022C3F6E073FEF7DEFD0C9C0D908C
:105AD0008846002C71D101F100430D980024024644
